{
  "contractName": "Faucet",
  "abi": [
    {
      "inputs": [
        {
          "internalType": "address",
          "name": "",
          "type": "address"
        }
      ],
      "name": "funders",
      "outputs": [
        {
          "internalType": "bool",
          "name": "",
          "type": "bool"
        }
      ],
      "stateMutability": "view",
      "type": "function"
    },
    {
      "inputs": [
        {
          "internalType": "uint256",
          "name": "",
          "type": "uint256"
        }
      ],
      "name": "lutFunders",
      "outputs": [
        {
          "internalType": "address",
          "name": "",
          "type": "address"
        }
      ],
      "stateMutability": "view",
      "type": "function"
    },
    {
      "inputs": [],
      "name": "numOfFunders",
      "outputs": [
        {
          "internalType": "uint256",
          "name": "",
          "type": "uint256"
        }
      ],
      "stateMutability": "view",
      "type": "function"
    },
    {
      "inputs": [],
      "name": "owner",
      "outputs": [
        {
          "internalType": "address",
          "name": "",
          "type": "address"
        }
      ],
      "stateMutability": "view",
      "type": "function"
    },
    {
      "inputs": [],
      "name": "testNum",
      "outputs": [
        {
          "internalType": "uint256",
          "name": "",
          "type": "uint256"
        }
      ],
      "stateMutability": "view",
      "type": "function"
    },
    {
      "stateMutability": "payable",
      "type": "receive"
    },
    {
      "inputs": [],
      "name": "getTestNum",
      "outputs": [
        {
          "internalType": "uint256",
          "name": "",
          "type": "uint256"
        }
      ],
      "stateMutability": "view",
      "type": "function"
    },
    {
      "inputs": [],
      "name": "testOnlyOwner",
      "outputs": [],
      "stateMutability": "nonpayable",
      "type": "function"
    },
    {
      "inputs": [],
      "name": "addFunds",
      "outputs": [],
      "stateMutability": "payable",
      "type": "function"
    },
    {
      "inputs": [
        {
          "internalType": "uint256",
          "name": "_amount",
          "type": "uint256"
        }
      ],
      "name": "withdraw",
      "outputs": [],
      "stateMutability": "nonpayable",
      "type": "function"
    },
    {
      "inputs": [],
      "name": "getAllFunders",
      "outputs": [
        {
          "internalType": "address[]",
          "name": "",
          "type": "address[]"
        }
      ],
      "stateMutability": "view",
      "type": "function"
    },
    {
      "inputs": [
        {
          "internalType": "uint8",
          "name": "_index",
          "type": "uint8"
        }
      ],
      "name": "getFunderByIndex",
      "outputs": [
        {
          "internalType": "address",
          "name": "",
          "type": "address"
        }
      ],
      "stateMutability": "view",
      "type": "function"
    }
  ],
  "bytecode": "0x608060405234801561001057600080fd5b50336000806101000a81548173ffffffffffffffffffffffffffffffffffffffff021916908373ffffffffffffffffffffffffffffffffffffffff1602179055506105c6600181905550610b88806100696000396000f3fe6080604052600436106100a05760003560e01c80636fbbb55d116100645780636fbbb55d146101915780638da5cb5b146101bc578063a26759cb146101e7578063ae28f1ed146101f1578063af7f2c9b1461021c578063bca5f7cd14610247576100a7565b8063031b3677146100ac5780631f8947ea146100e957806325e7d9ee146101265780632e1a7d4d1461013d5780635056637514610166576100a7565b366100a757005b600080fd5b3480156100b857600080fd5b506100d360048036038101906100ce91906106e8565b610284565b6040516100e09190610730565b60405180910390f35b3480156100f557600080fd5b50610110600480360381019061010b9190610781565b6102a4565b60405161011d91906107bd565b60405180910390f35b34801561013257600080fd5b5061013b6102d7565b005b34801561014957600080fd5b50610164600480360381019061015f9190610781565b610367565b005b34801561017257600080fd5b5061017b6103fe565b60405161018891906107e7565b60405180910390f35b34801561019d57600080fd5b506101a6610408565b6040516101b391906108c0565b60405180910390f35b3480156101c857600080fd5b506101d1610502565b6040516101de91906107bd565b60405180910390f35b6101ef610526565b005b3480156101fd57600080fd5b50610206610646565b60405161021391906107e7565b60405180910390f35b34801561022857600080fd5b5061023161064c565b60405161023e91906107e7565b60405180910390f35b34801561025357600080fd5b5061026e6004803603810190610269919061091b565b610652565b60405161027b91906107bd565b60405180910390f35b60026020528060005260406000206000915054906101000a900460ff1681565b60036020528060005260406000206000915054906101000a900473ffffffffffffffffffffffffffffffffffffffff1681565b60008054906101000a900473ffffffffffffffffffffffffffffffffffffffff1673ffffffffffffffffffffffffffffffffffffffff163373ffffffffffffffffffffffffffffffffffffffff1614610365576040517f08c379a000000000000000000000000000000000000000000000000000000000815260040161035c906109cb565b60405180910390fd5b565b80670de0b6b3a76400008111156103b3576040517f08c379a00000000000000000000000000000000000000000000000000000000081526004016103aa90610a5d565b60405180910390fd5b3373ffffffffffffffffffffffffffffffffffffffff166108fc839081150290604051600060405180830381858888f193505050501580156103f9573d6000803e3d6000fd5b505050565b6000600154905090565b6060600060045467ffffffffffffffff81111561042857610427610a7d565b5b6040519080825280602002602001820160405280156104565781602001602082028036833780820191505090505b50905060005b6004548110156104fa576003600082815260200190815260200160002060009054906101000a900473ffffffffffffffffffffffffffffffffffffffff168282815181106104ad576104ac610aac565b5b602002602001019073ffffffffffffffffffffffffffffffffffffffff16908173ffffffffffffffffffffffffffffffffffffffff168152505080806104f290610b0a565b91505061045c565b508091505090565b60008054906101000a900473ffffffffffffffffffffffffffffffffffffffff1681565b6000339050600260008273ffffffffffffffffffffffffffffffffffffffff1673ffffffffffffffffffffffffffffffffffffffff16815260200190815260200160002060009054906101000a900460ff166106435760006004600081548092919061059190610b0a565b9190505590506001600260008473ffffffffffffffffffffffffffffffffffffffff1673ffffffffffffffffffffffffffffffffffffffff16815260200190815260200160002060006101000a81548160ff021916908315150217905550816003600083815260200190815260200160002060006101000a81548173ffffffffffffffffffffffffffffffffffffffff021916908373ffffffffffffffffffffffffffffffffffffffff160217905550505b50565b60015481565b60045481565b60008061065d610408565b9050808360ff168151811061067557610674610aac565b5b6020026020010151915050919050565b600080fd5b600073ffffffffffffffffffffffffffffffffffffffff82169050919050565b60006106b58261068a565b9050919050565b6106c5816106aa565b81146106d057600080fd5b50565b6000813590506106e2816106bc565b92915050565b6000602082840312156106fe576106fd610685565b5b600061070c848285016106d3565b91505092915050565b60008115159050919050565b61072a81610715565b82525050565b60006020820190506107456000830184610721565b92915050565b6000819050919050565b61075e8161074b565b811461076957600080fd5b50565b60008135905061077b81610755565b92915050565b60006020828403121561079757610796610685565b5b60006107a58482850161076c565b91505092915050565b6107b7816106aa565b82525050565b60006020820190506107d260008301846107ae565b92915050565b6107e18161074b565b82525050565b60006020820190506107fc60008301846107d8565b92915050565b600081519050919050565b600082825260208201905092915050565b6000819050602082019050919050565b610837816106aa565b82525050565b6000610849838361082e565b60208301905092915050565b6000602082019050919050565b600061086d82610802565b610877818561080d565b93506108828361081e565b8060005b838110156108b357815161089a888261083d565b97506108a583610855565b925050600181019050610886565b5085935050505092915050565b600060208201905081810360008301526108da8184610862565b905092915050565b600060ff82169050919050565b6108f8816108e2565b811461090357600080fd5b50565b600081359050610915816108ef565b92915050565b60006020828403121561093157610930610685565b5b600061093f84828501610906565b91505092915050565b600082825260208201905092915050565b7f4f6e6c79204f776e65722043616e2041636365737320746869732066756e637460008201527f696f6e0000000000000000000000000000000000000000000000000000000000602082015250565b60006109b5602383610948565b91506109c082610959565b604082019050919050565b600060208201905081810360008301526109e4816109a8565b9050919050565b7f43616e6e6f74207769746864726177206d6f7265207468616e2031206574686560008201527f7200000000000000000000000000000000000000000000000000000000000000602082015250565b6000610a47602183610948565b9150610a52826109eb565b604082019050919050565b60006020820190508181036000830152610a7681610a3a565b9050919050565b7f4e487b7100000000000000000000000000000000000000000000000000000000600052604160045260246000fd5b7f4e487b7100000000000000000000000000000000000000000000000000000000600052603260045260246000fd5b7f4e487b7100000000000000000000000000000000000000000000000000000000600052601160045260246000fd5b6000610b158261074b565b91507fffffffffffffffffffffffffffffffffffffffffffffffffffffffffffffffff8203610b4757610b46610adb565b5b60018201905091905056fea2646970667358221220d0b061bda10cb9d9464f24e05fe8b5e9a2b5b350f369326e9f71de90bbc65cdb64736f6c634300080f0033",
  "immutableReferences": {},
  "source": "// SPDX-License-Identifier: MIT\r\npragma solidity >=0.4.22 <0.9.0;\r\n\r\nimport \"./Owned.sol\";\r\nimport \"./Logger.sol\";\r\n\r\ncontract Faucet is Owned, Logger{\r\n    \r\n    mapping(address=>bool) public funders;\r\n    mapping(uint=>address) public lutFunders; // lut = look up table\r\n    uint public numOfFunders;\r\n\r\n    receive() external payable{}\r\n\r\n    modifier limitWithdraw(uint _amount){\r\n        require(_amount <= 1000000000000000000, \"Cannot withdraw more than 1 ether\");\r\n        _;\r\n    }\r\n\r\n    function getTestNum() external view override returns(uint){\r\n        return testNum;\r\n    }\r\n\r\n    function testOnlyOwner()external onlyOwner{\r\n\r\n    }\r\n\r\n    function addFunds()external payable{\r\n        address funder = msg.sender;\r\n        if(!funders[funder]){\r\n            uint index = numOfFunders++;\r\n            funders[funder] = true;\r\n            lutFunders[index] = funder;\r\n        }\r\n    }\r\n\r\n    function withdraw(uint _amount)external limitWithdraw(_amount){\r\n        payable(msg.sender).transfer(_amount);\r\n    }\r\n\r\n    function getAllFunders()public view returns(address[] memory){\r\n        address[] memory _funder = new address[](numOfFunders);\r\n\r\n        for(uint i=0; i<numOfFunders; i++){\r\n            _funder[i] = lutFunders[i];\r\n        }\r\n\r\n        return _funder;\r\n    }\r\n\r\n    function getFunderByIndex(uint8 _index) external view returns(address){\r\n        address[] memory funderAddress = getAllFunders();\r\n\r\n        return funderAddress[_index];\r\n    }\r\n\r\n\r\n}",
  "sourcePath": "C:\\Project\\faucet\\contracts\\Faucet.sol",
  "compiler": {
    "name": "solc",
    "version": "0.8.15+commit.e14f2714.Emscripten.clang"
  },
  "schemaVersion": "3.4.8",
  "updatedAt": "2022-08-11T14:50:02.040Z",
  "devdoc": {
    "kind": "dev",
    "methods": {},
    "version": 1
  },
  "userdoc": {
    "kind": "user",
    "methods": {},
    "version": 1
  }
}